:1000460000000000000000000000000000000000AA
:100056000000010100000000000000000000000098
:10006600000000000000000000000000000000008A
:100076000001010101010101000000000000000073
:10008600000000000000000000000000000000006A
:100096000001010101010101000000000000000053
:1000A600000000000000000000000000000000004A
:1000B6000001010101010101000000000000000033
:1000C600000000000000000000000000000000002A
:1000D6000001010101010101000000000000000013
:1000E600000000000000000000000000000000000A
:1000F60000010101010101010000000000000000F3
:1001060000000000000000000000000000000000E9
:1001160000000101010101010100000000000000D2
:1001260000000000000000000000000000000000C9
:1001360000010101010101010100000000000000B1
:1001460000000000000000000000000000000000A9
:100156000001010101010101000000000000000092
:100166000000000000000000000000000000000089
:100176000101010101010100000000000000000072
:100186000000000000000000000000000000000069
:100196000101010101010100000000000000000052
:1001A6000000000000000000000000000000000049
:1001B6000101010101010100000000000000000032
:1001C6000000000000000000000000000101010125
:1001D6000101010101010100000000000000000012
:1001E6000000000000000000000000010101010104
:1001F60001010101010101000000000000000000F2
:1002060000000000000000000000010101010101E2
:1002160001010101010101000000000000000000D1
:1002260000000000000000000001010101010101C1
:1002360001010101010101000000000000000000B1
:10024600000000000000000101010101010101019F
:100256000101010101010000000000000000000092
:10026600000000000000010101010101010101017E
:100276000101010101010000000000000000000072
:10028600000000000000010101010101010101015E
:100296000101010101010000000000000000000052
:1002A600000000000000010101010101010101013E
:1002B6000101010101010000000000000000000032
:1002C600000000000000000101010101010101011F
:1002D6000101010101010100000000000000000011
:1002E6000000000000000000000000000000000107
:1002F60001010101010101000000000000000000F1
:1003060000000000000000000000000000000001E6
:1003160001010101010101000000000000000000D0
:1003260000000000000000000000000000000001C6
:1003360001010101010100000000000000000000B1
:1003460000000000000000000000000000000000A7
:100356000101010101010100000000000000000090
:100366000000000000000000000000000000000186
:100376000101010101010100000000000000000070
:100386000000000000000000000000000000000166
:100396000101010101010100000000000000000050
:1003A6000000000000000000000000000000000047
:1003B6000001010101010101000000000000000030
:1003C6000000000000000000000000000000000027
:1003D600000101010101010101000000000000000F
:1003E6000000000000000000000000000000000007
:1003F60000010101010101010101000000000000EE
:1004060000000000000000000000000000000000E6
:1004160000000001010101010100000000000000D0
:1004260000000000000000000000000000000000C6
:1004360000000001010101010000000000000000B1
:1004460001000000000000000000000000010100A3
:100456000000000000000000000000000000000096
:100466000000000000000000000001010101010180
:100476000000000000000000000000000000000076
:100486000000000000000000000001010101010160
:100496000100000000000000000000000000000055
:1004A600000000000000000000010101010101013F
:1004B6000101010000000000000000000000000033
:1004C600000000000000000001010101010101011E
:1004D6000101010000000000000000000000000013
:1004E60000000000000000010101010101010101FD
:1004F60001010100000000000000000000000000F3
:1005060000000000000000010101010101010101DC
:1005160001010100000000000000000000000000D2
:1005260000000000000000000101010101010000BF
:1005360001010101000000000000000000000000B1
:1005460000000000000000000101010101000000A0
:100556000001010100000000000000000000000092
:100566000000000000000000010101010000000081
:100576000101010100000000000000000000000071
:100586000000000000000000010101000000000062
:100596000101010100000000000000000000000051
:1005A6000000000000000000000101010000000042
:1005B6000001010101000000000000000000000031
:1005C6000000000000000000000000000000000025
:1005D6000101010101000000000000000000000010
:1005E6000000000000000000000000000000000005
:1005F60001010101000000000000000000000000F1
:1006060000000000000000000000000000000000E4
:1006160001010101000000000000000000000000D0
:1006260000000000000000000000000000000000C4
:1006360001010101010000000000000000000000AF
:1006460000000000000000000000000000000001A3
:10065600010101010100000000000000000000008F
:100666000000000000000000000000000000000183
:100676000101010100000000000000000000000070
:100686000000000000000000000000000000000163
:10069600010101010100000000000000000000004F
:1006A6000000000000000000000000000000000143
:1006B6000101010100000000000000000000000030
:1006C6000000000000000000000000000000010122
:1006D6000101010100000000000000000000000010
:1006E6000000000000000000000000000001010101
:1006F60001010000000000000000000000000000F2
:1007060000000000000000000000000000010101E0
:1007160001010000000000000000000000000000D1
:1007260000000000000000000000000001010101BF
:1007360001010000000000000000000000000000B1
:10074600000000000000000000000001010101019E
:100756000101000000000000000000000000000091
:10076600000000000000000000000101010101017D
:100776000100000000000000000001010000000070
:10078600000000000000000000000001010101015E
:100796000101010101010101010101010101000045
:1007A600000000000000000000000101010101013D
:1007B6000101010101010101010101010101000025
:1007C600000000000000000000000101010101011D
:1007D6000101010101010101010101010101000005
:1007E60000000000000000000000010101010101FD
:1007F60001010101010101010101010101010000E5
:1008060000000000000000000000000000010101DF
:1008160001010101010101010101010100000000C6
:1008260000000000000000000000000000000000C2
:1008360000000001000000000000000000000000B1
:1008460000020000000000000000000000000000A0
:100856000101000000000000000000000000000090
:10086600000000000000000000000000000101017F
:10087600010101010100000000000000000000006D
:10088600000000000000000000000001010101015D
:10089600010101010101010000000000000000004B
:1008A600000000000000000000000101010101013C
:1008B600010101010101010100000000000000002A
:1008C600000000000000000000000101010101011C
:1008D600010101010101010100000000000000000A
:1008E60000000000000000000001010101010101FB
:1008F60001010101010101010000000000000000EA
:1009060000000000000000000001010101010100DB
:1009160000000001010101010100000000000000CB
:1009260000000000000000000101010101010000BB
:1009360000000000010101010100000000000000AC
:10094600000000000000000000010101010000009D
:10095600000000000101010101000000000000008C
:10096600000000000000000000010101000000007E
:10097600000000000101010101000000000000006C
:100986000000000000000000000000000000000061
:10099600000000000101010101000000000000004C
:1009A6000000000000000000000000000000000041
:1009B600000000000101010100000000000000002D
:1009C6000000000000000000000000000000000021
:1009D600000000000101010100000000000000000D
:1009E6000000000000000000000000000000000001
:1009F60000000001010101010000000000000000EC
:100A060000000000000000000000000000000000E0
:100A160000000001010101010000000000000000CB
:100A260000000000000000000000000000000000C0
:100A360000000101010101010000000000000000AA
:100A460000000000000000000000000000000000A0
:100A5600000001010101000000000000000000008C
:100A66000000000000000000000000000000000080
:100A7600000101010101000000000000000000006B
:100A86000000000000000000000000000000000060
:100A9600010101010101000000000000000000004A
:100AA6000000000000000000000000000000000040
:100AB600010101010100000000000000000000002B
:100AC600000000000000000000000000000001011E
:100AD600010101010000000000000000000000000C
:100AE60000000000000000000000000000010101FD
:100AF60001010101000000000000000000000000EC
:100B060000000000000000000000000101010101DA
:100B160001010100000000000000000000000000CC
:100B260000000000000000000000010101010101B9
:100B360001010100000000000000000000000000AC
:100B46000000000000000000000101010101010198
:100B5600010100000000000000000000000000008D
:100B66000000000000000000000101010101010178
:100B7600010000000000000000000000000000006E
:100B86000000000000000000000101010101010158
:100B96000101010101010000000000000000000049
:100BA6000000000000000000000101010101010138
:100BB6000101010101010101010101000000000024
:100BC6000000000000000000000001010101010119
:100BD6000101010101010101010101010000000003
:100BE60000000000000000000000000101010101FA
:100BF60001010101010101010101010100000000E3
:100C060000000000000000000000000001010101DA
:100C160001010101010101010101010000000000C3
:100C260000000000000000000000000000000000BE
:100C360000000000010101010101000000000000A8
:100C46000000020000000000000000000001010199
:100C5600010101010000000000000000000000008A
:100C6600000000000000000000000000010101017A
:100C76000101010101010000000000000000000068
:100C86000000000000000000000000010101010159
:100C96000101010101010100000000000000000047
:100CA6000000000000000000000001010101010138
:100CB6000101010101010101000000000000000026
:100CC6000000000000000000000101010101010117
:100CD6000101010101010101000000000000000006
:100CE60000000000000000000000010101010101F8
:100CF60001010101010101010100000000000000E5
:100D060000000000000000000000010101010101D7
:100D160001000000010101010100000000000000C7
:100D260000000000000000000001010101010101B6
:100D360000000000010101010100000000000000A8
:100D46000000000000000000000101010101010097
:100D56000000000001010101010000000000000088
:100D66000000000000000000000101010101010077
:100D76000000000001010101010000000000000068
:100D86000000000000000000000001010101010058
:100D96000000000000010101010100000000000048
:100DA6000000000000000000000000010101010039
:100DB6000000000000010101010100000000000028
:100DC600000000000000000000000000010100001B
:100DD6000000000001010101010100000000000007
:100DE60000000000000000000000000000000000FD
:100DF60000000001010101010100000000000000E7
:100E060000000000000000000000000000000000DC
:100E160000000000010101010101000000000000C6
:100E260000000000000000000000000000000000BC
:100E360000000000010101010100000000000000A7
:100E4600000000000000000000000000000000009C
:100E56000000000101010101010000000000000086
:100E6600000000000000000000000000000000007C
:100E76000000000101010101010000000000000066
:100E8600000000000000000000000000000000005C
:100E96000000010101010101000000000000000046
:100EA600000000000000000000000000000000003C
:100EB6000000010101010101010000000000000025
:100EC600000000000000000000000000000000001C
:100ED6000001010101010101000000000000000005
:100EE60000000000000000000000000000000000FC
:100EF60001010101010101000000000000000000E5
:100F060000000000000000000000000000000000DB
:100F160001010101010100000000000000000000C5
:100F260000000000000000000000000000000000BB
:100F360001010101010101000000000000000000A4
:100F4600000000000000000000000000000000019A
:100F56000101010101010100000000000000000084
:100F66000000000000000000000000000101010177
:100F7600010101010101010101010101010101005C
:100F86000000000000000000000000010101010156
:100F9600010101010101010101010101010101013B
:100FA6000000000000000000000000010101010136
:100FB600010101010101010101010101010101011B
:100FC6000000000000000000000000010101010116
:100FD60001010101010101010101010101010101FB
:100FE60001000000000000000000000101010101F5
:100FF60001010101010101010101010101010101DB
:1010060000000000000000000000000101010101D5
:1010160001010101010101010101010101010100BB
:1010260000000000000000000000000001010101B6
:1010360001010100000000000000000000000000A7
:101046000000000200000000000000000000000098
:101056000001010101010101010000000000000082
:101066000000000000000000000000000000000179
:10107600010101010101010101010100000000005F
:101086000000000000000000000000000001010157
:10109600010101010101010101010101000000003E
:1010A6000000000000000000000000000001010137
:1010B600010101010101010101010101000000001E
:1010C6000000000000000000000000000001010117
:1010D60001010101010100010101010100000000FF
:1010E60000000000000000000000000000010101F7
:1010F60001000000000000000101010100000000E5
:1011060000000000000000000000000000000101D7
:1011160001000000000000000001010101000000C4
:1011260000000000000000000000000000000001B8
:1011360000000000000000000101010101000000A4
:101146000000000000000000000000000000000099
:101156000000000000000101010101000000000084
:101166000000000000000000000000000000000079
:101176000000000000010101010101000000000063
:101186000000000000000000000000000000000059
:101196000000000001010101010100000000000043
:1011A6000000000000000000000000000000000039
:1011B6000101010101010101010000000000000020
:1011C6000000000000000000000000000000000118
:1011D6000101010101010101000000000000000001
:1011E60000000000000000000000000000000101F7
:1011F60001010101010101010100000000000000E0
:1012060000000000000000000000000000010101D5
:1012160001010101010101010101000000000000BE
:1012260000000000000000000000000000010101B5
:10123600010101010101010101010100000000009D
:101246000000000000000000000000000001010195
:10125600010101010101010101010101000000007C
:101266000000000000000000000000000000010176
:101276000100000000000101010101010100000060
:101286000000000000000000000000000000000058
:101296000000000000000000010101010100000043
:1012A6000000000000000000000000000000000038
:1012B6000000000000000000000101010101000023
:1012C6000000000000000000000000000000000018
:1012D6000000000000000000000000010101010004
:1012E60000000000000000000000000000010100F6
:1012F60000000000000000000000000101010100E4
:1013060000000000000000000000000001010100D4
:1013160000000000000000000000000101010100C3
:1013260000000000000000000000000001010100B4
:1013360000000000000000000000000101010100A3
:101346000000000000000000000000000101010094
:101356000000000000000000000000010101010083
:101366000000000000000000000000010101010073
:101376000000000000000000000101010101000062
:101386000000000000000000000000000101010153
:101396000000000000000001010101010101000040
:1013A6000000000000000000000000000001010134
:1013B600010000000000010101010101010000001F
:1013C6000000000000000000000000000001010114
:1013D60001010101010101010101010100000000FB
:1013E60000000000000000000000000000010101F4
:1013F60001010101010101010101010100000000DB
:1014060000000000000000000000000000000101D4
:1014160001010101010101010101000000000000BC
:1014260000000000000000000000000000000000B6
:10143600010101010101010000000000000000009F
:101446000000000003000000000000000000000093
:10145600010101010101010000000000000000007F
:101466000000000000000000000000000001010173
:10147600010101010101010101000000000000005D
:101486000000000000000000000000000101010152
:10149600010101010101010101010000000000003C
:1014A6000000000000000000000000000101010132
:1014B600010101010101010101010100000000001B
:1014C6000000000000000000000000000101010112
:1014D60001010101010101010101010000000000FB
:1014E60000000000000000000000000001010101F2
:1014F60001010101010101010101010000000000DB
:1015060000000000000000000000000000000000D5
:1015160000000000010101010101010000000000BE
:1015260000000000000000000000000000000000B5
:10153600000000010101010101010100000000009D
:101546000000000000000000000000000000000095
:10155600000101010101010101010000000000007C
:101566000000000000000000000000000000000075
:10157600010101010101010101000000000000005C
:101586000000000000000000000000000000000055
:10159600010101010101010000000000000000003E
:1015A6000000000000000000000000000000000035
:1015B600010101010101010000000000000000001E
:1015C6000000000000000000000000000000000015
:1015D60001010101010101000000000000000000FE
:1015E60000000000000000000000000000000000F5
:1015F60000000101010101010100000000000000DE
:1016060000000000000000000000000000000000D4
:1016160000000101010101010101000000000000BC
:1016260000000000000000000000000000000000B4
:10163600000000000101010101010000000000009E
:101646000000000000000000000000000000000094
:10165600000000000001010101010100000000007E
:101666000000000000000000000000000000000074
:10167600000000000000000101010101000000005F
:101686000000000000000000000000000000000054
:10169600000000000000000001010101010000003F
:1016A6000000000000000000000000000000000034
:1016B6000000000000000000000101010100000020
:1016C6000000000000000000000000000000000014
:1016D60000000000000000000001010101010000FF
:1016E60000000000000000000000000000000000F4
:1016F60000000000000000000000010101010100DF
:1017060000000000000000000000000000000000D3
:1017160000000000000000000000000101010100BF
:1017260000000000000000000000000000000000B3
:10173600000000000000000000000001010101009F
:10174600000000000000000000000001010101008F
:10175600000000000000000000000001010101007F
:10176600000000000000000000000001010101006F
:10177600000000000000000000000101010101005E
:10178600000000000000000000000001010101014E
:10179600000000000000000000010101010101003D
:1017A600000000000000000000000000010101012F
:1017B6000101010101010101010101010101000015
:1017C600000000000000000000000000010101010F
:1017D60001010101010101010101010101000000F6
:1017E60000000000000000000000000001010101EF
:1017F60001010101010101010101010101000000D6
:1018060000000000000000000000000000000101D0
:1018160001010101010101010101010000000000B7
:1018260000000000000000000000000000000000B2
:10183600000101010100000000000000000000009E
:10184600000000000003000000000000000000008F
:10185600000000000101010100000000000000007E
:101866000000000000000000000000000000000072
:101876000001010101010101010100000000000059
:101886000000000000000000000000000000010150
:101896000101010101010101010101000000000037
:1018A600000000000000000000000000000101012F
:1018B6000101010101010101010101010000000016
:1018C600000000000000000000000000000101010F
:1018D60001010101010101010101010100000000F6
:1018E60000000000000000000000000000010101EF
:1018F60001010101010101010101010100000000D6
:1019060000000000000000000000000000000101CF
:1019160001010101000000000101010101000000B8
:1019260000000000000000000000000000000000B1
:10193600000000000000000001010101010100009B
:101946000000000000000000000000000000000091
:10195600000000000000000001010101010000007C
:101966000000000000000000000000000000000071
:10197600000000000000010101010101010000005A
:101986000000000000000000000000000000000051
:101996000000000000010101010101010100000039
:1019A6000000000000000000000000000000000031
:1019B6000000000001010101010101010000000019
:1019C6000000000000000000000000000000000011
:1019D60000010101010101010101010000000000F7
:1019E60000000000000000000000000000000000F1
:1019F60001010101010101010101010100000000D5
:101A060000000000000000000000000000000101CE
:101A160001010101010101010101010100000000B4
:101A260000000000000000000000000000000101AE
:101A36000101010101010101010101010000000094
:101A4600000000000000000000000000000001018E
:101A56000101010101010101010101010101000072
:101A6600000000000000000000000000000001016E
:101A76000101010101000101010101010101010052
:101A8600000000000000000000000000000000014F
:101A96000100000000000000010101010101010137
:101AA6000000000000000000000000000000000030
:101AB6000000000000000000000101010101010119
:101AC6000000000000000000000000000000000010
:101AD60000000000000000000000000001010101FC
:101AE60001000000000000000000000000000000EF
:101AF60000000000000000000000000000010101DD
:101B060001000000000000000000000000000000CE
:101B160000000000000000000000000000010101BC
:101B260001000000000000000000000000000000AE
:101B3600000000000000000000000000000101019C
:101B4600010000000000000000000000000000008E
:101B5600000000000000000000000000000101017C
:101B6600010000000000000000000000000000006E
:101B7600000000000000000000000001010101015A
:101B8600010000000000000000000000000001014C
:101B96000101010000000000010101010101010134
:101BA600010000000000000000000000000001012C
:101BB600010101010101010101010101010101010F
:101BC600010000000000000000000000000001010C
:101BD60001010101010101010101010101010101EF
:101BE60000000000000000000000000000000101ED
:101BF60001010101010101010101010101010100D0
:101C060000000000000000000000000000000001CD
:101C160001010101010101010101010100000000B2
:101C260000000000000000000000000000000000AE
:101C36000001010101010101010000000000000096
:101C4600000000000000030000000000000000008B
:101C5600000000000000000001010000000000007C
:101C6600000000000000000000000000000000006E
:101C76000000000000010101010101010100000056
:101C8600000000000000000000000000000000004E
:101C96000000010101010101010101010101000032
:101CA600000000000000000000000000000000002E
:101CB6000001010101010101010101010100000012
:101CC600000000000000000000000000000000010D
:101CD60001010101010101010101010101010000F0
:101CE60000000000000000000000000000000101EC
:101CF60001010101010101010101010101010000D0
:101D060000000000000000000000000000010101CA
:101D160001010101010101010101010101010000AF
:101D260000000000000000000000000000000101AB
:101D36000101010000000000000101010101000095
:101D4600000000000000000000000000000000018C
:101D56000101010000000000000101010101000075
:101D6600000000000000000000000000000000016C
:101D76000101000000000000000101010101000056
:101D8600000000000000000000000000000000004D
:101D96000000000000000000010101010100000038
:101DA600000000000000000000000000000000002D
:101DB6000000000000000001010101010000000018
:101DC600000000000000000000000000000000000D
:101DD60000000000000001010101010100000000F7
:101DE60000000000000000000000000000000000ED
:101DF60000000000010101010101010000000000D6
:101E060000000000000000000000000000000000CC
:101E160000000000010101010101010000000000B5
:101E260000000000000000000000000000000000AC
:101E36000000000101010101010101010100000092
:101E4600000000000000000000000000000000008C
:101E56000000000101010101010101010101010070
:101E6600000000000000000000000000000000006C
:101E7600000000010101010101010101010101014F
:101E8600000000000000000000000000000000004C
:101E96000000000001010101010101010101010130
:101EA600010000000000000000000000000000002B
:101EB6000000000000000101010101010101010112
:101EC600010000000000000000000000000000000B
:101ED60000000000000000000000000101010101F7
:101EE60001000000000000000000000000000000EB
:101EF60000000000000000000000000001010101D8
:101F060001000000000000000000000000000000CA
:101F160000000000000000000000000001010101B7
:101F260001000000000000000000000000000000AA
:101F36000000000000000000000000010101010196
:101F4600010000000000000000000000000000008A
:101F56000000000000000000000001010101010175
:101F6600010000000000000000000000000000006A
:101F76000000000000000000000101010101010154
:101F8600000000000000000000000000000000004B
:101F9600000000010101010101010101010101002F
:101FA600000000000000000000000000000000002B
:101FB600000001010101010101010101010100000F
:101FC600000000000000000000000000000000000B
:101FD60000000101010101010101010100000000F1
:101FE60000000000000000000000000000000000EB
:101FF60000000101010101010101010100000000D1
:1020060000000000000000000000000000000000CA
:1020160000010101010101010100000000000000B2
:1020260000000000000000000000000000000000AA
:102036000000010100000000000000000000000098
:102046000000000000000003000000000000000087
:102056000000000000000000010101000000000077
:10206600000000000000000000000000000000006A
:102076000000000000000001010101010000000055
:102086000001010100000000000000000000000047
:102096000000000000000101010101010100000033
:1020A6000101010101000000000000000000000025
:1020B6000000000000010101010101010000000112
:1020C6000101010101000000000000000000000005
:1020D60000000000010101010101010100000001F1
:1020E60001010101010000000000000000000000E5
:1020F60000000000010101010101010000000001D2
:1021060001010101010000000000000000000000C4
:1021160000000000010101010101000000000001B2
:1021260001010101010000000000000000000000A4
:102136000000010101010101010000000000010190
:102146000101010100000000000000000000000085
:102156000001010101010101000000000000010170
:102166000101010100000000000000000000000065
:102176000101010101010100000000000000010150
:102186000101010100000000000000000000000045
:102196000101010101010000000000000000010131
:1021A6000101010000000000000000000000000125
:1021B6000101010101000000000000000001010111
:1021C6000101000000000000000000000000010105
:1021D60001010101010000000000000001010101F0
:1021E60001010000000000000000000000000101E5
:1021F60001010101000000000000000101010101D0
:1022060001010100000000000000000000000101C3
:1022160001010101010101010101010101010101A8
:1022260001010101000000000000000000010101A1
:102236000101010101010101010101010101010188
:102246000101010000000000000000000000010183
:102256000101010101010101010101010101010168
:102266000101010000000000000000000000010163
:102276000101010101010101010101010101010148
:102286000101010000000000000000000000010143
:102296000101010101010101010101010101010128
:1022A6000100000000000000000000000000000126
:1022B600010101010101010100010101010101000A
:1022C6000000000000000000000000000000000008
:1022D60000010101000000000001010101010100EF
:1022E60000000000000000000000000000000000E8
:1022F60000000000000000000001010101010100D2
:1023060000000000000000000000000000000000C7
:1023160000000000000000010101010101000000B1
:1023260000000000000000000000000000000000A7
:102336000000000000000001010101010100000091
:102346000000000000000000000000000000000087
:102356000000000000000001010101010100000071
:102366000000000000000000000000000000000067
:102376000000000000000001010101010000000052
:102386000000000000000000000000000000000047
:102396000000000000000101010101000000000032
:1023A6000000000000000000000000000000000027
:1023B6000000000000000101010101000000000012
:1023C6000000000000000000000000000000000007
:1023D60000000000000001010101010000000000F2
:1023E60000000000000000000000000000000000E7
:1023F60000000000000001010101010000000000D2
:1024060000000000000000000000000000000000C6
:1024160000000000000101010101000000000000B1
:1024260000000000000000000000000000000000A6
:102436000000000001010101010000000000000091
:102446000000000000000000040000000000000082
:10245600000000000000010101010101010101016C
:102466000000000000000000000000000000000066
:10247600000000000001010101010101010101014B
:102486000101000000000000000000000000000044
:10249600000000000001010101010101010101012B
:1024A6000101010000000000000000000000000023
:1024B600000000000101010101010101010101010A
:1024C6000101010000000000000000000000000003
:1024D60000000000010101010101010100000101EC
:1024E60001010000000000000000000000000000E4
:1024F60000000001010101010101000000000000CF
:1025060000000000000000000000000000000000C5
:1025160000000001010101010000000000000000B0
:1025260000000000000000000000000000000000A5
:102536000000010101010100000000000000000090
:102546000000000000000000000000000000000085
:102556000000010101010100000000000000000070
:102566000000000000000000000000000000000065
:102576000000010101010000000000000000000051
:102586000000000000000000000000000000000045
:10259600010101010100000101010101000000002B
:1025A6000000000000000000000000000000000025
:1025B6000101010101010101010101010101000007
:1025C6000000000000000000000000000000000005
:1025D60001010101010101010101010101010000E7
:1025E60000000000000000000000000000000001E4
:1025F60001010101010101010101010101010100C6
:1026060000000000000000000000000000000000C4
:1026160001010101010101010101010101010101A4
:1026260000000000000000000000000000000000A4
:102636000101010101010101010001010101010185
:102646000100000000000000000000000000000083
:102656000000000000000000000000000101010170
:102666000100000000000000000000000000000063
:102676000000000000000000000000000001010151
:102686000101000000000000000000000000000042
:102696000000000000000000000000000000010132
:1026A6000101000000000000000000000000000022
:1026B6000000000000000000000000000000010112
:1026C6000101000000000000000000000000000002
:1026D60000000000000000000000000000000101F2
:1026E60001010000000000000000000000000000E2
:1026F60000000000000000000000000000000101D2
:1027060001010000000000000000000000000000C1
:1027160000000000000000000000000000010101B0
:1027260001000000000000000000000000000000A2
:10273600000000000000000000000000010101018F
:102746000100000000000000000000000000000082
:10275600000000000000000000000001010101016E
:102766000000000000000000000000000000000063
:10277600000000000000000000000101010101014D
:102786000000000000000000000000000000000043
:10279600000000000000000000010101010101002D
:1027A6000000000000000000000000000000000023
:1027B6000000000001010101010101010101010008
:1027C6000000000000000000000000000000000003
:1027D60000000000010101010101010101010000E9
:1027E60000000000000000000000000000000000E3
:1027F60000000000000101010101010100000000CC
:1028060000000000000000000000000000000000C2
:1028160000000000000101010101010000000000AC
:1028260000000000000000000000000000000000A2
:102836000000000000000101000000000000000090
:10284600000000000000000000050000000000007D
:102856000000000101010101010101010101010165
:10286600010101000000000000000000000000005F
:102876000001010101010101010101010101010143
:10288600010101000000000000000000000000003F
:102896000101010101010101010101010101010122
:1028A600010101000000000000000000000000001F
:1028B6000001010101010101010101010101010103
:1028C60001010101000000000000000000000000FE
:1028D60001010101010101010101010101010101E2
:1028E60001010100000000000000000000000000DF
:1028F60001010101010101010101010100000000C6
:1029060000000000000000000000000000000000C1
:1029160001010101010101010100000000000000A8
:1029260000000000000000000000000000000000A1
:10293600000101010101010100000000000000008A
:102946000000000000000000000000000000000081
:10295600010101010101000000000000000000006B
:102966000000000000000000000000000000000061
:10297600010101010101000000000000000000004B
:102986000000000000000000000000000000000140
:102996000101010101010101000000000000000029
:1029A6000000000000000000000000000000000120
:1029B6000101010101010101010101010000000005
:1029C6000000000000000000000000000000000100
:1029D60001010101010101010101010101010000E3
:1029E60000000000000000000000000000000001E0
:1029F60001010101010101010101010101010100C2
:102A060000000000000000000000000000000000C0
:102A160001010101010101010101010101010100A1
:102A260000000000000000000000000000000000A0
:102A36000001010101010101010101010101010181
:102A46000000000000000000000000000000000080
:102A56000000000000000000000101010101010169
:102A66000000000000000000000000000000000060
:102A7600000000000000000000000101010101014A
:102A8600010000000000000000000000000000003F
:102A9600000000000000000000000001010101012B
:102AA6000000000000000000000000000000000020
:102AB600000000000000000000000001010101010B
:102AC60001000000000000000000000000000000FF
:102AD60000000000000000000000000101010101EB
:102AE60001000000000000000000000000000000DF
:102AF60000000000000000000000000001010101CC
:102B060001000000000000000000000000000000BE
:102B160000000000000000000000000101010101AA
:102B2600010000000000000000000000000000009E
:102B36000000000000000000000001010101010189
:102B4600010000000000000000000000000000007E
:102B56000000000000000000000001010101010169
:102B6600010000000000000000000000000000005E
:102B76000000010000000001010101010101010145
:102B8600000000000000000000000000000000003F
:102B96000001010101010101010101010101010021
:102BA600000000000000000000000000000000001F
:102BB6000101010101010101010101010101010000
:102BC60000000000000000000000000000000000FF
:102BD60000010101010101010101010101010000E2
:102BE60000000000000000000000000000000000DF
:102BF60001010101010101010101010000000000C4
:102C060000000000000000000000000000000000BE
:102C160000000101010101010101010000000000A5
:102C2600000000000000000000000000000000009E
:102C36000000000101010101010100000000000087
:102C46000000000000000000000005000000000079
:102C5600000000000000000000000000000000016D
:102C6600000000000000000000000000000000005E
:102C76000000000101010000000101010101010144
:102C86000101010101000000000000000000000039
:102C96000000000101010101010101010101010121
:102CA6000101010101010000000000000000000018
:102CB60000010101010101010101010101010101FF
:102CC60001010101010000000000000000000000F9
:102CD60000010101010101010101010101010101DF
:102CE60001010101010000000000000000000000D9
:102CF60000010101010101010101010101010101BF
:102D060001010101010000000000000000000000B8
:102D1600000101010101010101010101000101019F
:102D26000101010100000000000000000000000099
:102D36000000010101010101000000000000000087
:102D4600000000000000000000000000000000007D
:102D56000000010101010101000000000000000067
:102D6600000000000000000000000000000000005D
:102D76000000010101010101000000000000000047
:102D8600000000000000000000000000000000003D
:102D96000000010101010101000000000000000027
:102DA600000000000000000000000000000000001D
:102DB6000000010101010101000000010101010102
:102DC60000000000000000000000000000000000FD
:102DD60000000101010101010101010101010101DF
:102DE60001010100000000000000000000000000DA
:102DF60000000101010101010101010101010101BF
:102E060001010101000000000000000000000000B8
:102E1600000001010101010101010101010101019E
:102E26000101010101000000000000000000000097
:102E3600000001010101010101010101010101017E
:102E46000101010101000000000000000000000077
:102E56000000000000010101010000000001000166
:102E66000101010101000000000000000000000057
:102E7600000000000000000000000000000000004C
:102E86000101010101000000000000000000000037
:102E9600000000000000000000000000000000002C
:102EA6000101010101000000000000000000000017
:102EB600000000000000000000000000000000000C
:102EC60001010101010000000000000000000000F7
:102ED60000000000000000000000000000000000EC
:102EE60001010101010000000000000000000000D7
:102EF60000000000000000000000000000000000CC
:102F060001010101010000000000000000000000B6
:102F160000000000000000000000000000000001AA
:102F26000101010100000000000000000000000097
:102F3600000000000000000000000000000000018A
:102F46000101010100000000000000000000000077
:102F56000000000000000000000000000001010168
:102F66000101010000000000000000000000000058
:102F76000000000001000000000000000101010146
:102F86000101010000000000000000000000000038
:102F96000000000101010100000001010101010121
:102FA6000101010000000000000000000000000018
:102FB60000000001010101010101010101010101FE
:102FC60001000000000000000000000000000000FA
:102FD60000000001010101010101010101010101DE
:102FE60001000000000000000000000000000000DA
:102FF60000000001010101010101010101010100BF
:1030060000000000000000000000000000000000BA
:1030160000000001010101010101010100000000A1
:10302600000000000000000000000000000000009A
:103036000000000001010100000000000000000087
:103046000000000000000000000000050000000075
:103056000000000000000000000101000000000068
:10306600000000000000000000000000000000005A
:103076000000000000000000010101010000000046
:10308600000000000000000000000000000000003A
:103096000000000000000101010101010100000023
:1030A600000000000000000000000000000000001A
:1030B6000000000000000101010101010101010001
:1030C60000000000000000000000000000000000FA
:1030D60000000000000001010101010101010000E2
:1030E60000000000000000000000000000000000DA
:1030F60000000000000101010101010100000000C3
:1031060000000000000000000000000000000000B9
:1031160000000000010101010101000000000000A3
:103126000000000000000000000000000000000099
:103136000000000001010101010100000000000083
:103146000000000000000000000000000000000079
:103156000000000001010101010000000000000064
:103166000000000000000000000000000000000059
:103176000000000001010101010000000000000044
:103186000000000000000000000000000000000039
:103196000000000001010101000000000000000025
:1031A6000000000000000000000000000000000019
:1031B6000000000001010101000000000000000005
:1031C60000000000000000000000000000000000F9
:1031D60000000000010101010101010101010101DD
:1031E60000000000000000000000000000000000D9
:1031F60000000000010101010101010101010101BD
:1032060001010000000000000000000000000000B6
:10321600000000010101010101010101010101019B
:103226000101010000000000000000000000000095
:10323600000000000101010101010101010101017C
:103246000101010100000000000000000000000074
:103256000000000001010101010101000000000061
:103266000101010101000000000000000000000053
:103276000000000101010101000000000000000043
:103286000001010101010000000000000000000033
:103296000000000101010101010000000000000022
:1032A6000000000101010100000000000000000014
:1032B6000000000001010101010000000000000003
:1032C60000000000010101000000000000000000F5
:1032D60000000000010101010100000000000000E3
:1032E60000000000010101000000000000000000D5
:1032F60000000000010101010100000000000000C3
:1033060000000000010101000000000000000000B4
:1033160000000000000101010100000000000000A3
:103326000000000001010101000000000000000093
:103336000000000000010101010000000000000083
:103346000000000101010101000000000000000072
:103356000000000000010101010000000000000063
:103366000000000101010101000000000000000052
:103376000000000000010101010000000000000043
:103386000001010101010101000000000000000030
:103396000000000000000101010101000000000022
:1033A6000101010101010100000000000000000010
:1033B60000000000000001010101010101010101FD
:1033C60001010101010100000000000000000000F1
:1033D60000000000000001010101010101010101DD
:1033E60001010101010100000000000000000000D1
:1033F60000000000000001010101010101010101BD
:1034060001010101000000000000000000000000B2
:10341600000000000000000001010101010101019E
:103426000100000000000000000000000000000095
:103436000000000000000000000101010101010080
:103446000000000000000000000000000600000070
:103456000000000000000000000000000000010164
:103466000000000000000000000000000000000056
:103476000000000000000000000001010101010140
:103486000100000000000000000000000000000035
:10349600000000000000000001010101010101011E
:1034A6000101000000000000000000000000000014
:1034B60000000000000000000001010101010101FF
:1034C60001010100000000000000000000000000F3
:1034D60000000000000000000001010101010101DF
:1034E60001010100000000000000000000000000D3
:1034F60000000000000000010101010101010101BD
:1035060001000000000000000000000000000000B4
:10351600000000000000000101010101010101019C
:103526000100000000000000000000000000000094
:10353600000000000000000101010101010000007F
:103546000000000000000000000000000000000075
:10355600000000000000000101010101010000005F
:103566000000000000000000000000000000000055
:10357600000000000000010101010101000000003F
:103586000000000000000000000000000000000035
:10359600000000000001010101010100000000001F
:1035A6000000000000000000000000000000000015
:1035B60000000000000101010101010000000000FF
:1035C60000000000000000000000000000000000F5
:1035D60000000000000001010101010000000000E0
:1035E60000000000000000000000000000000000D5
:1035F60000000000000001010101010000000000C0
:1036060000000000000000000000000000000000B4
:10361600000000000001010101010000000000009F
:103626000000000000000000000000000000000094
:103636000000000001010101010101010101010178
:103646000000000000000000000000000000000074
:103656000000000001010101010101010101010158
:103666000000000000000000000000000000000054
:103676000000000001010101010101010101010138
:103686000101000000000000000000000000000032
:103696000000000101010101010101010101010117
:1036A6000101010100000000000000000000000010
:1036B60000000001010101010101010101010101F7
:1036C60001010101000000000000000000000000F0
:1036D60000000001010101010101010101010101D7
:1036E60001010101000000000000000000000000D0
:1036F60000000000010101010101010100000001BB
:1037060001010101010101000000000000000000AC
:10371600000000000101010101010100000000009C
:10372600010101010101010000000000000000008C
:10373600000000000001010101010100000000007D
:10374600000101010101010000000000000000006D
:10375600000000000001010101010100000000005D
:10376600000000010101010000000000000000004F
:10377600000000000000010101010101010000003C
:10378600000000010101010100000000000000002E
:10379600000000000000010101010101010101001A
:1037A600000001010101010100000000000000000D
:1037B60000000000000000010101010101010101FA
:1037C60001010101010101000000000000000000EC
:1037D60000000000000000010101010101010101DA
:1037E60001010101010101000000000000000000CC
:1037F60000000000000000000101010101010101BB
:1038060001010101010101000000000000000000AB
:10381600000000000000000000000101010101019C
:10382600010101010101010000000000000000008B
:10383600000000000000000000000000000101017F
:103846000101010100000000000000000006000068
:103856000000000000000000000000000000000062
:103866000100000000000000000000000000000051
:103876000000000000000000000000000000010140
:10388600010101000000000000000000000000002F
:10389600000000000000000000000001010101011D
:1038A600010101010000000000000000000000000E
:1038B60000000000000000000000010101010101FC
:1038C60001010101000000000000000000000000EE
:1038D60000000000000000000001010101010101DB
:1038E60001010101000000000000000000000000CE
:1038F60000000000000000000001010101010101BB
:1039060001010101010000000000000000000000AC
:10391600000000000000000000010101010101019A
:103926000100000000000000000000000000000090
:10393600000000000000000101010101010000007B
:103946000000000000000000000000000000000071
:10395600000000000000000101010101010000005B
:103966000000000000000000000000000000000051
:10397600000000000000010101010100000000003C
:103986000000000000000000000000000000000031
:10399600000000000000010101010101000000001B
:1039A6000000000000000000000000000000000011
:1039B60000000000000001010101010100000000FB
:1039C60000000000000000000000000000000000F1
:1039D60000000000000101010101000000000000DC
:1039E60000000000000000000000000000000000D1
:1039F60000000000000101010101000000000000BC
:103A060000000000000000000000000000000000B0
:103A16000000000000010101010101000000000199
:103A2600010101010100000000000000000000008B
:103A36000000000000010101010101000001010177
:103A46000101010101010100000000000000000069
:103A56000000000000010101010101010101010155
:103A66000101010101010100000000000000000049
:103A76000000000000010101010101010101010135
:103A86000101010101010100000000000000000029
:103A96000000000000010101010101010101010115
:103AA6000101010101010100000000000000000009
:103AB60000000000000001010101010101010101F6
:103AC60001000001010101010100000000000000E9
:103AD60000000000000001010101010101010000D8
:103AE60000000001010101010100000000000000CA
:103AF60000000000000101010101010100000000B9
:103B060000000000010101010000000000000000AB
:103B1600000000000000010101010100000000009A
:103B2600000000000101010100000000000000008B
:103B3600000000000000000101010100000000007B
:103B4600000000000001010101010000000000006A
:103B5600000000000000000101010101000000005A
:103B66000000000101010101010000000000000049
:103B76000000000000000001010101010100000039
:103B86000000000101010101010000000000000029
:103B96000000000000000001010101010101010116
:103BA6000100010101010101010000000000000007
:103BB60000000000000000000101010101010101F7
:103BC60001010101010101000000000000000000E8
:103BD60000000000000000000000010101010101D9
:103BE60001010101010101010000000000000000C7
:103BF60000000000000000000000000101010101BA
:103C060001010101010101000000000000000000A7
:103C1600000000000000000000000000010101019A
:103C26000101010101010000000000000000000088
:103C3600000000000000000000000000000001017C
:103C46000101000000000000000000000000060066
:103C5600000000000000000000000000000101015B
:103C6600000000000000000000000000000000004E
:103C7600000000000000000000000000010101013A
:103C8600000000000000000000000000000000002E
:103C96000000000000000000000001010101010118
:103CA600010000000000000000000000000000000D
:103CB60000000000000000000000010101010101F8
:103CC60001010000000000000000000000000000EC
:103CD60000000000000000000001010101010101D7
:103CE60001000000000000000000000000000000CD
:103CF60000000000000000000101010101010101B6
:103D060001000000000000000000000000000000AC
:103D16000000000000000000010101010101000097
:103D2600000000000000000000000000000000008D
:103D36000000000000000001010101010101000076
:103D4600000000000000000000000000000000006D
:103D56000000000000000000010101010100000058
:103D6600000000000000000000000000000000004D
:103D76000000000000000001010101010000000038
:103D8600000000000000000000000000000000002D
:103D96000000000000000001010101000000000019
:103DA600000000000000000000000000000000000D
:103DB60000000000000000010101010000000000F9
:103DC60000000000000000000000000000000000ED
:103DD60000000000000101010101010000000000D7
:103DE60000000000000000000000000000000000CD
:103DF60000000000000101010101000000000000B8
:103E060000000000000000000000000000000000AC
:103E16000000000000000101010101000000000097
:103E2600010100000000000000000000000000008A
:103E36000000000000000101010100000001010175
:103E46000101010000000000000000000000000069
:103E56000000000000010101010101010101010151
:103E66000101010101010000000000000000000046
:103E76000000000000010101010101010101010131
:103E86000101010101010000000000000000000026
:103E96000000000000010101010101010101010111
:103EA6000101010101010000000000000000000006
:103EB60000000000000001010101010101010101F2
:103EC60001010101010101010000000000000000E4
:103ED60000000000000001010101010101010101D2
:103EE60000000001010101010100000000000000C6
:103EF60000000000000001010101010101000000B5
:103F060000000000010101010100000000000000A6
:103F16000000000000000101010101010100000094
:103F26000000000001010101010100000000000085
:103F36000000000000000101010101000000000076
:103F46000000000000010101010100000000000066
:103F56000000000000000101010101000000000056
:103F66000000000000010101010100000000000046
:103F76000000000000000000010101010100000036
:103F86000000000000000101010101000000000026
:103F96000000000000000000010101010101000015
:103FA6000000000000010101010101000000000005
:103FB60000000000000000000001010101010101F4
:103FC60001010101010101010101010000000000E0
:103FD60000000000000000000000010101010101D5
:103FE60001010101010101010100000000000000C2
:103FF60000000000000000000000010101010101B5
:1040060001010101010101010000000000000000A2
:104016000000000000000000000000000101010196
:104026000101010101010101000000000000000082
:104036000000000000000000000000000000000179
:10404600010101010101000000000000000000065E
:104056000000000000000000000000000101010156
:104066000101000000000000000000000000000048
:104076000000000000000000000001010101010134
:104086000101000000000000000000000000000028
:104096000000000000000000000001010101010114
:1040A6000101010000000000000000000000000007
:1040B60000000000000001010101010101010101F0
:1040C60001010101010000000000000000000000E5
:1040D60000000000000001010101010101010101D0
:1040E60000010101010000000000000000000000C6
:1040F60000000000000001010101010101000000B3
:1041060000000101010000000000000000000000A6
:104116000000000000010101010101010000000092
:104126000001010101010000000000000000000084
:104136000000000000010101010101000000000073
:104146000001010101000000000000000000000065
:104156000000000000000101010101000000010152
:104166000101010101010000000000000000000043
:104176000000000000010101010101000001010130
:104186000101010101000000000000000000000024
:104196000000000000010101010100000101010110
:1041A6000101010101000000000000000000000004
:1041B60000000000000101010101000001010101F0
:1041C60001010101010100000000000000000000E3
:1041D60000000000000101010101010101010101CE
:1041E60001010101010101000000000000000000C2
:1041F60000000000000101010101010101010101AE
:1042060001010101010101010000000000000000A0
:10421600000000000000010101010101010101018E
:104226000101000000010101010000000000000082
:10423600000000000000000101010101010101016F
:104246000101000000010101010000000000000062
:104256000000000000000001010101010101010050
:104266000000000000000101010100000000000044
:104276000000000000000000010101010101000032
:104286000000000000000101010100000000000024
:104296000000000000000000010101010100000013
:1042A6000000000000000101010100000000000004
:1042B60000000000000000000001010101010000F3
:1042C60000000000000000000101010000000000E5
:1042D60000000000000000000001010101010000D3
:1042E60000000000000000000101010000000000C5
:1042F60000000000000000000001010101000000B4
:1043060000000000000000010101010000000000A3
:104316000000000000000000000101010100000093
:104326000000000000000101010101000000000082
:104336000000000000000000000101010100000073
:104346000000000000000101010100000000000063
:104356000000000000000000000101010100000053
:104366000000000001010101010100000000000041
:104376000000000000000000000001010101000033
:104386000000000001010101010101000000000020
:104396000000000000000000000001010101000013
:1043A60000010101010101010101000000000000FE
:1043B60000000000000000000000010101010101F1
:1043C60001010101010101010100000000000000DE
:1043D60000000000000000000000010101010101D1
:1043E60001010101010101000000000000000000C0
:1043F60000000000000000000000010101010101B1
:1044060001010101010100000000000000000000A0
:104416000000000000000000000000000101010192
:104426000101010101000000000000000000000081
:104436000000000000000000000000000000010174
:104446000101010000000000000000000000000063
:10445600080000000000000000000000000000004E
:104466000000000001010000000000000000000044
:104476000000000000000000000000000000000036
:10448600010101010101010000000000000000001F
:104496000000000000000000000101000000010112
:1044A60001010101010101000000000000000000FF
:1044B60000000000000000000101010101010101EE
:1044C60001010101010101010000000000000000DE
:1044D60000000000000000000101010101010101CE
:1044E60001010101010101010100000000000000BD
:1044F60000000000000000000101010101010101AE
:10450600010100000001010101000000000000009F
:10451600000000000000000001010101010101008E
:104526000000000000000101010000000000000082
:10453600000000000000000101010101010000006F
:104546000000000000010101010000000000000061
:10455600000000000000000101010101010000004F
:104566000000000001010101010000000000000040
:10457600000000000000000101010101010000002F
:10458600010101010101010100000000000000001D
:10459600000000000000000101010101010000000F
:1045A60001010101010101010000000000000000FD
:1045B60000000000000000010101010100010101ED
:1045C60001010101010101010000000000000000DD
:1045D60000000000000000010101010101010101CC
:1045E60001010101010101010000000000000000BD
:1045F60000000000000000000101010101010101AD
:10460600010101010101010101000000000000009B
:10461600000000000000000001010101010101018C
:10462600010101010101010101000000000000007B
:10463600000000000000000001010101010101016C
:10464600010101000001010101010000000000005C
:10465600000000000000000000000101010101014E
:104666000000000000000001010100000000000041
:10467600000000000000000000000101010101012E
:104686000000000000000001010100000000000021
:10469600000000000000000000010101010101000E
:1046A6000000000000000000010101000000000001
:1046B60000000000000000000001010101010000EF
:1046C60000000000000000000101010000000000E1
:1046D60000000000000000000001010101010000CF
:1046E60000000000000000000101010000000000C1
:1046F60000000000000000000001010101000000B0
:1047060000000000000000000101010000000000A0
:10471600000000000000000000010101010000008F
:104726000000000000000000010101000000000080
:10473600000000000000000000010101010000006F
:10474600000000000000010101010100000000005E
:10475600000000000000000000010101010000004F
:10476600000000000001010101010000000000003E
:10477600000000000000000000010101010000002F
:10478600000000000101010101010000000000001D
:10479600000000000000000000010101010000000F
:1047A60001010101010101010100000000000000FA
:1047B60000000000000000000001010101010101EC
:1047C60001010101010101010000000000000000DB
:1047D60000000000000000000001010101010101CC
:1047E60001010101010101000000000000000000BC
:1047F60000000000000000000001010101010101AC
:10480600010101010100000000000000000000009D
:10481600000000000000000000000001010101018D
:10482600010101000000000000000000000000007F
:10483600000000000000000000000000010101016E
:104846000100000000000000000000000000000061
:10485600000800000000000000000000000000004A
:10486600000000010101010101010000000000003B
:104876000000000000000000000000000000000032
:104886000001010101010101010101010000000017
:104896000000000000000000000000000000010110
:1048A60001010101010101010101010101000000F5
:1048B60000000000000000000000000001010101EE
:1048C60001010101010101010101010100000000D6
:1048D60000000000000000000000010101010101CC
:1048E60001010101010101010101010101000000B5
:1048F60000000000000000000000010101010101AC
:104906000101010101010101010101010100000094
:10491600000000000000000000000101010101008C
:10492600000000000000010101010101000000007B
:10493600000000000000000000000101010000006E
:10494600000000000000000101010100000000005D
:10495600000000000000000000000101010000004E
:10496600000000000000010101010100000000003C
:10497600000000000000000000000101010100002D
:10498600000000000001010101010100000000001B
:10499600000000000000000000010101010101000B
:1049A60000000000000101010101000000000000FC
:1049B60000000000000000000001010101010101EA
:1049C60000000000010101010101000000000000DB
:1049D60000000000000000000101010101010101C9
:1049E60001000101010101000000000000000000BB
:1049F60000000000000000000101010101010101A9
:104A06000101010101010100000000000000000099
:104A1600000000000000000000000101010101018A
:104A2600010101010101000000000000000000007A
:104A3600000000000000000000000001010101016B
:104A4600010101010101000000000000000000005A
:104A5600000000000000000000000000000001014E
:104A66000101010101010100000000000000000039
:104A7600000000000000000000000000000001012E
:104A86000101010101010101000000000000000018
:104A9600000000000000000000000000000001010E
:104AA60001010101010101010000000000000000F8
:104AB60000000000000000000000000000010101ED
:104AC60001010101010101010101000000000000D6
:104AD60000000000000000000000000000010101CD
:104AE60001010101010101010101000000000000B6
:104AF60000000000000000000000000101010101AB
:104B06000000000101010101010101000000000097
:104B1600000000000000000000000001010101018A
:104B26000000000001010101010101000000000078
:104B3600000000000000000000000001010101016A
:104B46000000000000010101010101000000000059
:104B5600000000000000000000000001010101014A
:104B66000000000000010101010101000000000039
:104B7600000000000000000000000001010101012A
:104B86000000000000010101010101000000000019
:104B9600000000000000000000000000010101010B
:104BA60001010101010101010101010000000000F4
:104BB60000000000000000000000000001010101EB
:104BC60001010101010101010101010000000000D4
:104BD60000000000000000000000000000010101CC
:104BE60001010101010101010101010000000000B4
:104BF60000000000000000000000000000000101AD
:104C06000101010101010101010000000000000095
:104C1600000000000000000000000000000101018B
:104C26000101010101010100000000000000000077
:104C3600000000000000000000000000000000006E
:104C4600000100000000000000000000000000005D
:104C56000000080000000000000000000000000046
:104C6600000000000000000001010101000000003A
:104C7600000000000000000000000000000000002E
:104C86000000000101010101010101010000000015
:104C9600000000000000000000000000010101010A
:104CA60001010101010101010101010100000000F2
:104CB60000000000000000000000000001010101EA
:104CC60001010101010101010101010100000000D2
:104CD60000000000000000000000000001010101CA
:104CE60001010101010101010101010101000000B1
:104CF60000000000000000000000000101010101A9
:104D06000101010101010101010101010100000090
:104D16000000000000000000000001010101010187
:104D26000101010101010101010101000000000072
:104D36000000000000000000000000010101010168
:104D4600000000000000000000000000000000005D
:104D56000000000000000000000000010101010148
:104D6600000000000000000000000000000000003D
:104D76000000000000000000000000010101010128
:104D8600000000000000000000000000000000001D
:104D96000000000000000000000000010101010108
:104DA60000000000000000000000000000000000FD
:104DB60000000000000000000000000101010101E8
:104DC60001000000000000000000000000000000DC
:104DD60000000000000000000000000101010101C8
:104DE60001010101010101010101000000000000B3
:104DF60000000000000000000000010101010101A7
:104E06000101010101010101010100000000000092
:104E16000000000000000000000001010101010186
:104E26000101010101010101010101000000000071
:104E36000000000000000000000001010101010166
:104E46000101010101010101010101010000000050
:104E56000000000000000000000001010101010146
:104E6600010101010101010101010101010000002F
:104E76000000000000000000000001010101010126
:104E86000000000000000101010101010100000015
:104E96000000000000000000000000000101010009
:104EA60000000000000000010101010101000000F6
:104EB60000000000000000000000000000000000EC
:104EC60000000000000000000101010101000000D7
:104ED60000000000000000000000000000000000CC
:104EE60000000000000000010101010100000000B7
:104EF60000000000000000000000000000000000AC
:104F06000000000000000001010101010000000096
:104F1600000000000000000000000000000000008B
:104F26000000000000000001010101010000000076
:104F3600000000000000000000000000000000006B
:104F46000000000000000001010101010000000056
:104F5600000000000000000000000000000000004B
:104F66000000000000010101010101000000000035
:104F7600000000000000000000000000000000002B
:104F86000000000001010101010101000000000014
:104F96000000000000000000000000000001010108
:104FA60001010101010101010100000000000000F2
:104FB60000000000000000000000000001010101E7
:104FC60001010101010101010000000000000000D3
:104FD60000000000000000000000000001010101C7
:104FE60001010101010101010000000000000000B3
:104FF60000000000000000000000000001010101A7
:105006000101010101010000000000000000000094
:105016000000000000000000000000000001010187
:105026000101010101010000000000000000000074
:10503600000000000000000000000000000000006A
:105046000101010000000000000000000000000057
:105056000000000500000000000000000001010142
:10506600010101010101010101010101010000002D
:105076000000000000000000000000010101010125
:10508600010101010101010101010101010000000D
:105096000000000000000000000001010101010104
:1050A60001010101010101010101010101000000ED
:1050B60000000000000000000000000101010101E5
:1050C60001010101010101010101010101010000CC
:1050D60000000000000000000000010101010101C4
:1050E60001010101010101010101010101000000AD
:1050F60000000000000000000000010101010101A4
:105106000101010101010000000000000000000093
:105116000000000000000000000001010101010183
:105126000101010000000000000000000000000076
:105136000000000000000000000000010101010164
:105146000101000000000000000000000000000057
:105156000000000000000000000001010101010143
:105166000000000000000000000000000000000039
:105176000000000000000000000001010101010123
:105186000000000000000000000000000000000019
:105196000000000000000000000101010101010102
:1051A60001010000000000000000000000000000F7
:1051B60000000000000000000001010101010101E2
:1051C60001010101010100000000000000000000D3
:1051D60000000000000000000001010101010101C2
:1051E60001010101010101010000000000000000B1
:1051F60000000000000000000001010101010101A2
:10520600010101010101010101000000000000008F
:105216000000000000000000000001010101010182
:10522600010101010101010101000000000000006F
:105236000000000000000000000000010101010163
:10524600010101010101010101010000000000004E
:105256000000000000000000000000000000000048
:105266000000000101010101010100000000000031
:105276000000000000000000000000000000000028
:105286000000000001010101010101000000000011
:105296000000000000000000000000000000000008
:1052A60000000000000101010101000000000000F3
:1052B60000000000000000000000000000000000E8
:1052C60000000000000101010101010000000000D2
:1052D60000000000000000000000000000000000C8
:1052E60000000000000101010101010000000000B2
:1052F60000000000000000000000000000000000A8
:105306000000000000000101010101000000000092
:105316000000000000000000000000000000000087
:105326000000000000010101010101000000000071
:105336000000000000000000000000000000000067
:105346000000000001010101010101000000000050
:105356000000000000000000000000000000000047
:105366000000000001010101010101000000000030
:105376000000000000000000000000000100000026
:10538600000101010101010101010000000000000E
:105396000000000000000000000000010101010102
:1053A60001010101010101010100000000000000EE
:1053B60000000000000000000000010101010101E1
:1053C60001010101010101010100000000000000CE
:1053D60000000000000000000000000101010101C2
:1053E60001010101010101010000000000000000AF
:1053F60000000000000000000000010101010101A1
:105406000101010101000000000000000000000091
:105416000000000000000000000000000101010182
:105426000101010101000000000000000000000071
:105436000000000000000000000000000001010163
:105446000101010100000000000000000000000052
:105456000000000005000000000000000000000041
:105466000101010101000000000000000000000031
:105476000000000000000000000000000000000026
:10548600010101010101010000000000000000000F
:105496000000000000000000000000000000000105
:1054A60001010101010101000000000000000000EF
:1054B60000000000000000000000000000000101E4
:1054C60001010101010101000000000000000000CF
:1054D60000000000000000000000000000010101C3
:1054E60001010101010100000000000000000000B0
:1054F60000000000000000000000000000010101A3
:105506000101010101000000000000000000000090
:105516000000000000000000000000000001010182
:105526000101010100000000000000000000000071
:105536000000000000000000000000000001010162
:105546000101010000000000000000000000000052
:105556000000000000000000000000000101010141
:105566000101000000000000000000000000000033
:105576000000000000000000000000000101010121
:105586000100000000000000000000000000000014
:105596000000000000000000000000000001010102
:1055A60001010000000000000000000000000000F3
:1055B60000000000000000000000000000010101E2
:1055C60001010000000000000000000000000000D3
:1055D60000000000000000000000000001010101C1
:1055E60001010000000000000000000000000000B3
:1055F60000000000000000000000000001010101A1
:105606000100000000000000000000000000000093
:105616000000000000000000000000000001010181
:105626000100000000000000000000000000000073
:105636000000000000000000000000000101010160
:10564600010001010101010101010100000000004A
:105656000000000000000000000000000101010140
:105666000101010101010101010101010000000028
:105676000000000000000000000000000101010120
:105686000101010101010101010101010100000007
:1056960000000000000000000000000101010101FF
:1056A60001010101010101010101010101010000E6
:1056B60000000000000000000000000001010101E0
:1056C60001010101010101010101010101010101C4
:1056D60000000000000000000000000001010101C0
:1056E60001010101010101010101010101010101A4
:1056F600010000000000000000000001010101019E
:10570600010100000000000000000001010101018C
:10571600010000000000000000000000010101017E
:10572600010000000000000000000000010101016E
:10573600010000000000000000000000000101015F
:10574600010100000000000000000000000101014E
:10575600010100000000000000000000000101013E
:10576600010100000000000000000000010101012D
:10577600010100000000000000000000000101011E
:10578600010100000000000000000101010101010B
:1057960001010000000000000000000000010101FE
:1057A60001010100000000000001010101010101E9
:1057B60001000000000000000000000000010101DF
:1057C60001010101010101010101010101010101C3
:1057D60000000000000000000000000000000101C1
:1057E60001010101010101010101010101010101A3
:1057F60000000000000000000000000000000001A2
:105806000101010101010101010101010101010083
:105816000000000000000000000000000000000082
:105826000101010101010101010101010101000064
:105836000000000000000000000000000000000062
:105846000001010101010101010101000000000048
:10585600000000000006000000000000000000003C
:10586600000001010101000000000000000000002E
:105876000000000000000000000000000000000022
:10588600000001010101010000000000000000000D
:105896000000000000000000000000000000000002
:1058A60000010101010101000000000000000000EC
:1058B60000000000000000000000000000000000E2
:1058C60001010101010101000000000000000000CB
:1058D60000000000000000000000000000000000C2
:1058E60001010101010101000000000000000000AB
:1058F60000000000000000000000000000000000A2
:10590600000101010101010000000000000000008B
:105916000000000000000000000000000000000081
:10592600010101010100000000000000000000006C
:105936000000000000000000000000000000000160
:10594600010101010100000000000000000000004C
:105956000000000000000000000000000000000140
:10596600010101010000000000000000000000002D
:10597600000000000000000000000000000001011F
:10598600010101000000000000000000000000000E
:105996000000000000000000000000000000000100
:1059A60001010101000000000000000000000000ED
:1059B60000000000000000000000000000000101DF
:1059C60001010101000000000000000000000000CD
:1059D60000000000000000000000000000000101BF
:1059E60001010100000000000000000000000000AE
:1059F600000000000000000000000000000101019E
:105A0600010100000000000000000000000000008E
:105A1600000000000000000000000000000001017E
:105A2600010101000000000000000000000000006D
:105A3600000000000000000000000000000001015E
:105A46000101010000010101010000000000000049
:105A5600000000000000000000000000000101013D
:105A66000101010101010101010101010100000023
:105A7600000000000000000000000000000101011D
:105A86000101010101010101010101010101000002
:105A960000000000000000000000000000010101FD
:105AA60001010101010101010101010101010000E2
:105AB60000000000000000000000000000010101DD
:105AC60001010101010101010101010101010101C0
:105AD60000000000000000000000000000010101BD
:105AE60001010101010100000001010101010101A3
:105AF600010000000000000000000000000101019C
:105B06000101010100000000000000010101010186
:105B1600010000000000000000000000000101017B
